:020000040800F2
:10000000983301209D0100085B2B0008E9220008BD
:10001000592B0008270300089D430008000000003A
:100020000000000000000000000000000F39000880
:1000300029030008000000007D2B0008C73A0008D3
:10004000B7010008B7010008B7010008D531000862
:10005000B7010008B7010008B7010008B7010008A0
:10006000B7010008B7010008B7010008B701000890
:10007000B7010008B7010008B7010008B701000880
:10008000B7010008B7010008B7010008B701000870
:10009000B7010008B7010008B7010008B701000860
:1000A000B7010008B7010008B7010008B701000850
:1000B000B7010008B7010008813B0008B70100083C
:1000C000B7010008B7010008B7010008B701000830
:1000D000B701000831430008B7010008B701000864
:1000E000B7010008B5300008B7010008B7010008E3
:1000F000B7010008B7010008B7010008B701000800
:10010000B7010008B7010008B7010008B7010008EF
:10011000B7010008B7010008B7010008B7010008DF
:10012000B7010008B7010008B7010008B7010008CF
:10013000B7010008B7010008B7010008B7010008BF
:10014000B7010008B7010008B7010008B7010008AF
:10015000B7010008B7010008B7010008B70100089F
:10016000B7010008B7010008B7010008B70100088F
:10017000B7010008B70100080000000000000000FF
:10018000B7010008B7010008DFF80CD000F08EF8C6
:10019000004800479D930008983301200648804797
:1001A00006480047FEE7FEE7FEE7FEE7FEE7FEE75C
:1001B000FEE7FEE7FEE7FEE73D3B00088901000899
:1001C0002DE9F05F0546002092469B46884606468C
:1001D000814640241BE0284641464746224600F01F
:1001E00055F853465A46C01A914110D31146184645
:1001F000224600F03CF82D1A67EB01084F462246D4
:100200000120002100F033F817EB00094E41201EB9
:10021000A4F10104DFDC484631462A46434600F09B
:1002200000B830BCBDE8C09F421E12F8013F002B51
:10023000FBD111F8013B02F8013B002BF9D17047CB
:1002400010B5002200E0521C835C8C5CA34201D1FB
:10025000002BF8D1D8B2E1B2401A10BD034611F814
:10026000012B00F8012B002AF9D118467047202AEB
:1002700004DB203A00FA02F1002070479140C2F1FD
:10028000200320FA03F3194390407047202A04DB2F
:10029000203A21FA02F00021704721FA02F3D040FF
:1002A000C2F120029140084319467047064C074DA1
:1002B00006E0E06840F0010394E807009847103436
:1002C000AC42F6D3FFF764FF08AF010828AF01087E
:1002D00070B58C1810F8015B15F0070301D110F808
:1002E000013B2A1106D110F8012B03E010F8016B35
:1002F00001F8016B5B1EF9D12B0705D40023521EB8
:100300000DD401F8013BFAE710F8013BCB1A921C1F
:1003100003E013F8015B01F8015B521EF9D5A1421D
:10032000D8D3002070BDFEE77047000008B5034A2F
:1003300000925223F02202F055FB08BDD0080108BC
:1003400030B40C4601461546500700D0012000EBA2
:10035000D50010FB05F0C2B208784B78812809D38C
:10036000402B07D3FF2B05D0FF2803D07F2B0CD2C7
:10037000403B0BE00023184603E05B1C04F8010B34
:10038000DBB29342F9D330BC7047413B8138D9B2DC
:10039000C0B2C0EB401303EB801001EB40005043B0
:1003A0000C490C2D0CD0102D0DD0182D0ED0202D59
:1003B000E9D1D1F821100144204630BC04F022B824
:1003C000D1F80910F7E7D1F81110F4E7D1F81910B6
:1003D000F1E70000302B0120C8B101680A6822F063
:1003E0000E020A6001680A6822F001020A6090F8B1
:1003F0004410012301F01C0203FA02F1026C516067
:1004000080F82530002180F824100846704701202C
:10041000704710B590F825100024022903D004215C
:10042000C16301241AE001680A6822F00E020A6022
:1004300001680A6822F001020A6090F84410012362
:1004400001F01C0203FA02F1026C516080F82530C1
:10045000002180F82410816B01B18847204610BD2F
:100460002DE9F84FDFF8A091002209F1040A0AF102
:10047000040B4FF00F080BF1040EBEE00124944072
:10048000234075D04D68022D01D0122D11D1D50811
:1004900000EB85073E6A5507ED0E08FA05FC26EAD3
:1004A0000C06D1F810C00CFA05FC4CEA060CC7F893
:1004B00020C007685500032691F804C0AE400CF038
:1004C000030CB7430CFA05FC4CEA070CC0F800C05B
:1004D0004F68012F05D0022F03D0112F01D0122F0A
:1004E00015D18768D1F80CC0B7430CFA05FC4CEA6B
:1004F000070CC0F808C0476891F804C0A743CCF3C4
:10050000001C0CFA02FC4CEA070CC0F804C0D1F83D
:1005100004C06FEA0C07BF0706D1C76AA743CCF334
:10052000C00494403C43C462C468B4438E68AE4087
:100530002643C6604C68E4005ED5344C256E45F019
:1005400001052566246E22F0030504F001040094E1
:100550002F4C2E19B7689407250F08FA05F4A74306
:10056000B0F1904F05D02B4CA04204D101241CE0E7
:1005700042E0002419E0284CA04201D1022414E0FA
:10058000264CA04201D103240FE0254CA04201D10A
:1005900004240AE0234CA04201D1052405E0224CAA
:1005A000A04201D1062400E00724AC403C43B460E3
:1005B000D9F800404D464E689C43F60300D51C43D5
:1005C0002C60DAF8004055464E689C43B60300D5CF
:1005D0001C432C60DBF800405D464E689C43F602ED
:1005E00000D51C432C60DEF8004075464E689C43E5
:1005F000B60200D51C432C60521C0B6833FA02F47F
:100600007FF43CAF00F012B800040140001002403B
:10061000000001400004004800080048000C0048A9
:1006200000100048001400480018004818BCBDE83D
:10063000E08F0069084000D00120704742694A40BD
:10064000426170470AB18161704781627047000062
:10065000014800687047000004000020024801685B
:10066000491C0160704700000400002010B5002400
:10067000052000F04FF8002000F008F808B1012430
:1006800001E000F01BF8204610BD000070B50546E3
:1006900009484FF47A7100240068B0FBF1F001F0D2
:1006A00055FC08B1012404E000222946501E00F048
:1006B00011F8204670BD000000000020704700F0D7
:1006C0001F02012191404009800000F1E020C0F8A4
:1006D00000117047F0B40E4B1B68C3F30223C3F143
:1006E0000704042C00D904241D1D072D01D200236A
:1006F00000E0DB1E012606FA04F56D1E0D409D404C
:100700009E40761E164045EA0601F0BC02F026BA6D
:100710000CED00E0064A00F0070110684FF6FF03F9
:10072000184040EA01200349084310607047000068
:100730000CED00E00000FA051649B0F5007F0868EE
:10074000C0F3412009D0022805D0086820F4C06019
:1007500040F480600860002070470128FBD00868E2
:1007600020F4C06040F4007008600B48322200683A
:1007700050430A4AB0FBF2F0401C00E0401E4A69B8
:10078000520501D50028F9D148694005E3D5032079
:1007900070470000007000400000002040420F0041
:1007A0000248006800F4C06070470000007000401C
:1007B0000248016841F48071016070470070004098
:1007C000F8B504460025FFF743FF064694F83900C4
:1007D000800736D5002084F8380020680168490772
:1007E0000BD5016821F004010160606BFFF7F4FD97
:1007F00018B1E06B40F00400E0632068016841F04C
:1008000002010160206C0090334601220221204643
:1008100002F0D2FA050014D121680220C860206CD1
:100820000090334600222021204602F0C5FA050040
:1008300007D12068416921F040614161012084F8BD
:1008400039002846F8BD2DE9F84F17468B46044677
:10085000FFF7FEFE824694F8380001280ED00126EC
:1008600084F8386094F839004FF00008012807D068
:10087000022584F83880284600F028B80220FBE7DB
:10088000C4F83C804FF0020984F8399053460022A6
:1008900020212046009702F08FFA0500E9D10022BE
:1008A0005946204602F06BF9DBF8240058B953464C
:1008B000012202212046009702F07EFA0500D8D1DD
:1008C0002168C1F80C9084F83960D2E718BCBDE803
:1008D000E08F0000F8B50446FFF7BAFE07465CB1AA
:1008E00094F83800012809D0012684F8386094F87B
:1008F0003900002520B10BE00120F8BD0220F8BD31
:1009000084F83850204600F03DF841F288302064E9
:1009100020680168A2686FF0FF0321F4706103EBA7
:10092000022211430160206C00903B4600222021EE
:10093000204602F041FAE8B921680A680F4B1A40D4
:10094000237942EA0362E3681A430A60D4E9052185
:100950000A4321684B680A4F3B40278A43EA074312
:100960001A434A6021680A6842F001020A60E5639E
:1009700084F8396084F83850F8BD0000EFFFFF00BC
:10098000FEF8E0FF114800B5016D87B041F48071B9
:100990000165016D01F480710591C16C41F0100198
:1009A000C164C06C694600F0100005904FF47C40B3
:1009B00000900220019000200290032003900A2062
:1009C00004900348FFF74CFD07B000BD0010024043
:1009D000001000482DE9F84F16460F460446FFF771
:1009E00037FE82462068816994F8382000F120059E
:1009F000012A0ED04FF0010884F8388094F839208D
:100A00004FF00009012A06D0022084F8389000F047
:100A100043B80220FBE7C4F83C90B7B3222284F825
:100A200039200269521C22630269521CE262A762E9
:100A3000426922F0406242F0806242612068816136
:100A40000DE00621204602F0B7F9D8B92878A16A4E
:100A50000870A06A401CA062206B401E2063206BBF
:100A600053464FF0010200960028EAD14FF00201F0
:100A7000204602F0A1F928B921680220C86020466A
:100A8000FFF79EFE84F83980BFE7FFE7E06B40F098
:100A90000800E0630120B8E718BCBDE8E08F2DE94D
:100AA000F84F16460F460446FFF7D2FD82462068EF
:100AB00094F8381000F1200501290ED04FF00108FC
:100AC00084F8388094F839104FF00009012906D0D5
:100AD000022084F8389000F03FB80220FBE7C4F809
:100AE0003C9097B3122184F839100169491C616266
:100AF0000169491C2162E761416921F0406141615E
:100B00000DE00421204602F057F9D8B9E0690078D9
:100B10002870E069401CE061606A401E6062606AA3
:100B200053464FF0010200960028EAD14FF002012F
:100B3000204602F041F928B921680220C860204609
:100B4000FFF73EFE84F83980C3E7FFE7E06B40F033
:100B50000800E0630120BCE718BCBDE8E08F00009E
:100B60002DE9F84F044600250088E44E2F46010584
:100B700004F1200B1DD5606E78B1B0F5800F11D057
:100B8000B0F5000F04D0B0F5400F22D001250FE0E2
:100B9000F06840F48030F0601BE00021201D02F07E
:100BA0002FF903E00021584602F0C0F9050010D0EB
:100BB0002F462088C00426D5A06EC0B1B0F1807F3A
:100BC0001AD0B0F1007F0DD0B0F1407F19D00125CF
:100BD00018E0D6F88800616E20F440000843C6F89B
:100BE0008800E6E7F06840F48030F06009E000211A
:100BF000201D02F005F903E00021584602F096F9A5
:100C00000546F5B12F462068800366D5B06D4FF0DC
:100C10000009C00009D4B06D40F08050B065B06DDF
:100C20004FF0010900F080500090DFF8D4A2DAF80C
:100C3000001041F48071CAF80010FFF709FD8046EA
:100C400010E0D6F88800A16E20F040700843C6F886
:100C50008800D8E7FFF7FCFCA0EB0800022801D9C8
:100C6000032532E0DAF80000C005F3D56DBBD6F8F5
:100C7000900010F4407015D0D4F88410814211D047
:100C8000D6F89000D6F8901020F4407041F48031EE
:100C9000C6F89010D6F8901021F48031C6F8901064
:100CA000C6F89000C0074ED0FFF7D2FC804641F254
:100CB000883A05E0FFF7CCFCA0EB08015145CFD8FE
:100CC000D6F890008007F5D5EDB32F46B9F1000FA7
:100CD00003D0B06D20F08050B0652078C00707D0F9
:100CE000D6F88800A16B20F003000843C6F88800FE
:100CF0002078800707D5D6F88800E16B20F00C003B
:100D00000843C6F888002078400707D5D6F8880041
:100D1000216C20F030000843C6F8880020780007D6
:100D200007D5D6F88800616C20F0C0000843C6F8EB
:100D300088002078C00609D5D6F88800A16C20F478
:100D40004070084300E05AE0C6F88800207880062A
:100D500007D5D6F88800E16C20F440600843C6F857
:100D600088002088800507D5D6F88800E16D20F43A
:100D700040200843C6F888002088400507D5D6F8EB
:100D80008800216E20F440100843C6F888002078BF
:100D9000400607D5D6F88800216D20F4405008435E
:100DA000C6F888002078000607D5D6F88800616D5F
:100DB00020F440400843C6F888002088C00507D5C5
:100DC000D6F88800A16D20F440300843C6F88800AA
:100DD00020884FF0006580044FF0806821D5D6F858
:100DE0008800E16E20F040600843C6F88800E06E9D
:100DF000A8420ED1F06840F48010F06011E0D6F8FF
:100E00009000D4F8841020F440700843C6F8900095
:100E10005CE7404505D10121201D01F0F1FF00B143
:100E200007462068000317D5D6F88800216F20F008
:100E300040600843C6F88800206FA84204D1F068DB
:100E400040F48010F06007E0404505D10121201DED
:100E500001F0D6FF00B107462068400317D5D6F849
:100E60008800616F20F040600843C6F88800606F1A
:100E7000A84204D1F06840F48010F06007E04045DB
:100E800005D10121201D01F0BBFF00B107462088DC
:100E900040041AD5D6F88800A16F20F040500843CE
:100EA000C6F88800A06FB0F1805F03D0B0F1005F9A
:100EB00005D00AE00221201D01F0A2FF03E002217B
:100EC000584602F033F800B107462088000407D5E1
:100ED000D6F88800E16F20F080400843C6F888000B
:100EE0002068C00307D556F8880FD4F8801020F08A
:100EF000004008433060384600F004B8001002405B
:100F00000070004018BCBDE8E08F00002DE9F047FC
:100F10000D4604005ED0DFF80881D8F8000000F02C
:100F20000700A8420CD2D8F8001021F0070129438D
:100F3000C8F80010D8F8000000F00700A84249D116
:100F40002078384EC0072BD06068032811D00228C3
:100F500012D0316898B1490500293BDAB16821F017
:100F600003010143B160FFF773FB074641F2883983
:100F70000FE031688901EFE731688903ECE7890701
:100F8000EAE7FFF765FBC11B494502D90320BDE82D
:100F9000F087B068616800F00C00B0EB810FF0D111
:100FA0002078800705D5B068A16820F0F0000843DC
:100FB000B060D8F80010404601F00701A9420BD9F3
:100FC000016821F0070129430160006800F0070073
:100FD000A84201D00120DAE72078400705D5B068A3
:100FE000E16820F4E0600843B0602078000706D58F
:100FF000B068216920F4605040EAC100B06000F0A0
:101000003BF8B168084AC1F30311515C01F01F01BC
:10101000C84006490860BDE8F0470020FFF736BB2E
:101020000020024000100240D4BC00080000002054
:101030000548064900688968054AC1F30221515CE8
:1010400001F01F01C840704700000020001002405E
:1010500014BD00080548064900688968054AC1F3BF
:10106000C221515C01F01F01C84070470000002000
:101070000010024014BD000870B5264B0022104637
:101080009968DC6811F00C0104F00306224C4FEA69
:10109000640508D00C2904D0042925D0082925D0BE
:1010A00010E0012E10D11A68120704D4D3F894204E
:1010B000C2F3032202E01A68C2F30312174E56F875
:1010C000222079B10C290ED1D86800F00301D8682C
:1010D000C0F30210401C02290AD003290BD0B2FB36
:1010E000F0F00AE0104670BD204670BD284670BD85
:1010F000B4FBF0F001E0B5FBF0F0D968C1F30621D4
:101100004843D968C1F34161491C4900B0FBF1F083
:1011100070BD0000001002400024F400E4BC000890
:101120002DE9F84304007CD0FA4DA86800F00C06C5
:10113000E86800F003072078C00662D576B10C2E6F
:1011400001D1012F0AD0A0690028286878D040F08A
:1011500001002860FFF77CFA804659E02868800784
:1011600002D5A0690028DED0216A2868000703D5CF
:10117000286800F0F00004E0D5F89400F02202EABC
:101180001010814216D9084601F056FF002848D1B8
:10119000286840F0080028602868216A20F0F000E4
:1011A000084328606868E16920F47F4040EA012034
:1011B000686015E0286840F0080028602868216A07
:1011C00020F0F000084328606868E16920F47F405F
:1011D00040EA01206860206A01F02EFF0028D6D185
:1011E000FFF74AFFA968CC4AC1F30311515C01F033
:1011F0001F01C840C94908600020FFF747FA0028CE
:101200007ED12DE0FFF724FAA0EB0800022878D861
:1012100028688007F6D5286840F00800286028680C
:1012200001E0B8E00CE0216A20F0F00008432860FB
:101230006868E16920F47F4040EA012068600FE0BF
:1012400020F001002860FFF703FA804605E0FFF771
:10125000FFF9A0EB08000228D9D828688007F6D447
:101260002078C00740D0082E18D00C2E01D1032FB3
:1012700014D06068B0F5803F17D0B0F5A02F286873
:1012800017D020F480302860286820F4802028605F
:101290006068E0B1FFF7DCF9804614E0286880035D
:1012A00022D56068002876D01EE0286840F480309F
:1012B000EDE740F480202860F7E7FFF7C9F9A0EBDD
:1012C00008006428A3D828688003F6D50CE0FFF74F
:1012D000BFF9804605E0FFF7BBF9A0EB08006428E2
:1012E00095D828688003F6D42078800739D5042E55
:1012F00011D00C2E01D1022F0DD0E068002801E0A2
:101300002DE19BE028681DD040F480702860FFF735
:101310009FF907460BE0286840050BD5E0680028D8
:10132000C1D007E0FFF794F9C01B022894D82868C1
:101330004005F7D56868217C20F0F85040EA01604C
:1013400068600EE020F480702860FFF781F907469E
:1013500004E0FFF77DF9C01B02286FD8286840051C
:10136000F7D42078000728D560690028D5F89400C4
:1013700012D040F00100C5F89400FFF769F9074664
:1013800004E0FFF765F9C01B022857D8D5F8940090
:101390008007F6D511E0E9E020F00100C5F89400DF
:1013A000FFF756F9074604E0FFF752F9C01B022881
:1013B00044D8D5F894008007F6D42078400766D545
:1013C000A86D4FF00008C00009D4A86D40F080500F
:1013D000A865A86D4FF0010800F0805000905048BB
:1013E0000168C90511D40168814641F4807101602A
:1013F000FFF72EF9074604E0FFF72AF9C01B022881
:101400001CD8D9F80000C005F6D5A068012816D070
:101410000528D5F8900017D020F00100C5F89000FD
:10142000D5F8900020F00400C5F89000A06841F2C3
:101430008839C0B1FFF70CF907460FE069E0D5F82D
:10144000900040F00100EFE740F00400C5F8900084
:10145000F5E7FFF7FDF8C11B49457FD8D5F89000A7
:101460008007F6D50CE0FFF7F3F8074604E0FFF736
:10147000EFF8C11B494571D8D5F890008007F6D424
:10148000B8F1000F03D0A86D20F08050A865A06AC5
:10149000F0B30C2E6AD00228286820F080702860F3
:1014A00004D0286810F0205F47D04AE0FFF7D0F85A
:1014B000064604E0FFF7CCF8801B02284ED82868C7
:1014C0008001F7D4206BE16A000110380843616B9A
:1014D000A26B0902120941EA42410843A18F114A55
:1014E000490802EB4151084394F8401049081201A1
:1014F00002EB41610843E860286840F08070286092
:10150000E86840F08070E860FFF7A2F8044610E059
:101510002AE023E000100240D4BC000800000020B4
:10152000007000400000E0FFFFF792F8001B022867
:1015300014D828688001F7D516E0E86820F0030089
:10154000E860E8680A490840E860FFF781F8044667
:1015500007E0FFF77DF8001B022802D90320BDE851
:10156000F88328688001F4D40020F8E70120F6E72A
:10157000FFFFEEFE70470068503050F821007047C2
:1015800008B50068503000EB81000090026008BD93
:101590004FF400710148FFF751B8000000100048F7
:1015A00010B50B4904464FF4801008602168C868E4
:1015B000400508D5C86800F0800060F49060C860FD
:1015C0002046FFF7E5FF012084F8210010BD000050
:1015D0001404014010B505A003F000F80122BDE895
:1015E000104004210448FFF72DB80000414C41523F
:1015F0004D2041210D0A00000004004810B5144997
:1016000004464FF48020086021688868C0040BD528
:10161000C868C00508D5C86800F0800060F4C070D4
:10162000C8602046FFF7D6FF2168886880040BD584
:10163000C868800508D5C86800F0800060F4207094
:10164000C8602046FFF796FF012084F8210010BDF6
:101650001404014010B500680B4641680D48014074
:10166000080CD870C1F304245C7001F03F049C7036
:10167000C1F34231197052B901F022FDD870587887
:1016800001F01EFD5870987801F01AFD9870002046
:1016900010BD00003FFFFF0010B50B460168896ACE
:1016A000596001680969C1F30E0199600068016819
:1016B0000D480140C1F305401870C1F306245C7069
:1016C00001F07F049C70890DD97052B901F0F8FCCB
:1016D0001870587801F0F4FC5870987801F0F0FC1C
:1016E0009870002010BD00007F7F7F002DE9F04141
:1016F00004004FF0010553D094F82100002528B9CB
:10170000002084F82000204600F050F8022084F8E1
:1017100021002168CA20486221685320486220467F
:1017200001F0E2FCFF26042718BB206881681E4AEE
:1017300011408160206881686268A3691143226951
:101740001A43114381602168E068086120680169DB
:10175000228941EA024101612068C16821F08001CB
:10176000C16020688068800609D4204600F02EF908
:1017700028B12068466284F82170012510E02068B5
:10178000C16C21F00301C164E16960690143206813
:10179000C26C1143C16420684662012084F82100B4
:1017A0002846BDE8F0810000BFFF8FFF10B5124C46
:1017B000B4B054F8580F40F080502060206800F01A
:1017C00080503390FEF7F4FF0420229000202C90EC
:1017D0000120249022A8FFF7A3FC4FF400300090D2
:1017E000401221906846FFF7BBF9A06B40F400401F
:1017F000A06334B010BD0000001002402DE9F04796
:10180000044690F820000B46012820D04FF0010933
:1018100084F82090022084F82100DAB19878D978F1
:1018200040EA014558781978000240EA4130054302
:101830002168CA204862216853204862204601F08E
:1018400053FC0026FF274FF0040860BB1AE002207B
:10185000BDE8F0875878C10603D500F0EF000A30E4
:101860005870D87801F035FC0204587801F031FC4A
:1018700042EA0022987801F02CFC0243187842EAF0
:101880004035D5E710480540206845602068C168AC
:1018900021F08001C1602068806880060BD420465A
:1018A00000F094F838B12068476284F8218084F809
:1018B00020600120CCE72068476284F8219084F8FA
:1018C00020600020C4E700003FFFFF002DE9F04743
:1018D000044690F8200092460D46012815D04FF09E
:1018E000010884F82080022084F821002168CA20A1
:1018F0004862216853204862204601F0F5FBFF272B
:101900004FF004090026E8BB02E00220BDE8F087A2
:101910002068BAF1000F80684FEA406005D00028C7
:1019200017DA287801F0CCFB14E0002800DBEE7019
:10193000287801F0CEFB0204687801F0CAFB42EA85
:101940000022A87801F0C5FB0243E87842EA805003
:101950000AE0EE70A8782978EA7840EA01406978D0
:10196000090241EA8251084317490840216808608A
:101970002068816821F480218160D5E9031001434A
:10198000206800E00FE08268114381602068C16830
:1019900021F08001C1602068806880060BD4204659
:1019A00000F014F838B12068476284F8219084F878
:1019B00020600120AAE72068476284F8218084F82B
:1019C00020600020A2E700007F7F7F0070B5054601
:1019D0000068C16821F0A001C160FEF739FE04462D
:1019E0004FF47A7606E0FEF733FE001BB04201D9D1
:1019F000032070BD2868C0688006F4D5002070BD43
:101A00002DE9F041040005D00025A56294F85D00A1
:101A100018B107E00120BDE8F08184F85C50204651
:101A200000F044F8022684F85D602068016821F027
:101A300040010160E0684FF4E062904201D900216A
:101A400001E04FF48051B0F5706F02D0904200D0A9
:101A5000A562276B012327B9904201D9266300E0D4
:101A60002363D4E901021043D4E90426324310432E
:101A7000228B02F400721043E2691043226A104381
:101A8000A26A104322681060626B606AA669104304
:101A90000427E26807EA16463243104308432168E8
:101AA0004860256684F85D300020B4E72DE9F041F8
:101AB000054600682149224C0226012786B04FF0D6
:101AC0000308884219D1E06C40F00100E064E06C4A
:101AD00000F001000590206E40F480502066206EDA
:101AE000694600F480500590E0208DE8C101052092
:101AF00004904FF09040FEF7B3FC124928688842EA
:101B000018D1E06C40F00200E064E06C00F00200EC
:101B10000590A06D40F40040A065A06D694600F4FA
:101B20000040059028208DE8C10106200490064859
:101B3000FEF796FC06B0BDE8F081000000300140E1
:101B400000100240003C0040000400482DE9F84F1E
:101B5000044690F85C0000261D4690468946012800
:101B60000ED04FF0010B84F85CB0FEF771FD074614
:101B700094F85D004146B246012804D00226A0E058
:101B8000022000F0A4B8B9F1000F71D0B8F1000F35
:101B90006ED0032084F85D00C4F860A0C4F83890CB
:101BA000A4F83C80A4F83E80C4F840A0A4F844A067
:101BB000A4F846A0C4F850A0C4F84CA0A068B0F5A2
:101BC000004F04D12068026842F48042026020681D
:101BD0000268520603D4026842F040020260E068E4
:101BE000B0F5E06F606822D908B101291BD1A06B64
:101BF00021680088C86006E020688168890709D5E7
:101C0000A16B0988C160A06B801CA063E08F401E9F
:101C1000E08708E0FEF71CFDC01BA84202D3681C49
:101C200001D045E0A5B3E08F0028E5D135E008B14B
:101C300001292FD1E08F0128A06B03D921680088EA
:101C4000C8600FE021680078087314E0E08721E0A5
:101C500020688168890714D5E18F0129A16B08D913
:101C60000988C160A06B801CA063E08F801EEDE737
:101C700026E009780173A06B401CA063E08F401E32
:101C8000E4E7FEF7E5FCC01BA84202D3681C01D0C4
:101C90000EE06DB1E08F0028DAD13A4629462046A1
:101CA00001F07CFD08B120202066A06810B105E09D
:101CB000032606E02068C16880680090206E00B1AD
:101CC000012684F85DB084F85CA0304659E718BC62
:101CD000BDE8E08F2DE9F05F044690F85C00012537
:101CE0000A9E1F4692468B464FF0000801280ED0F0
:101CF000012084F85C00FEF7ABFC814694F85D009F
:101D0000616801280CD0B1F5827F07D102E0022082
:101D100000F00DB9A16809B9042801D0022004E13E
:101D2000BBF1000F24D0BAF1000F21D007B394F813
:101D30005D00042802D0052084F85D0000202066A4
:101D4000C4F840A0A4F84670A4F84470C4F838B0B1
:101D5000E787A787E0642065E0684FF4E061884288
:101D600001D8012F06D92068426822F4805205E08C
:101D70000120DAE02068426842F480524260206824
:101D80000268520603D4026842F040020260E06832
:101D90008842606842D908B1012F37D1A06B216811
:101DA0000088C860A06B801CA063E08F401EE087A5
:101DB0002CE02068816889070DD5E18F59B1012D8C
:101DC00009D1A16B0988C160A06B801CA063E08F62
:101DD000401EE087002520688168C9070ED0B4F84E
:101DE000461059B1C068216C0880206C801C2064AA
:101DF000B4F84600401EA4F846000125FEF728FC72
:101E0000A0EB0900B04201D3701C72D1E08F002812
:101E1000CFD1B4F846000028CBD173E008B1012F30
:101E200069D1E08F0128A06B08D921680088C860BB
:101E3000A06B801CA063E08F801E07E02168007803
:101E40000873A06B401CA063E08F401EE08752E047
:101E500020688168890718D5E18FB1B1012D14D1AF
:101E6000E18F0129A16B07D90988C160A06B801C93
:101E7000A063E08F801E06E009780173A06B401C10
:101E8000A063E08F401EE087002520688168C907B5
:101E900027D0B4F8461021B3B4F84610012914D95C
:101EA000C068216C0880206C801C2064B4F8460057
:101EB000801EA4F84600B4F84600012810D8206817
:101EC000416841F4805141600AE0007B216C087058
:101ED000206C401C2064B4F84600401EA4F8460064
:101EE0000125FEF7B5FBA0EB0900B04202D3701C40
:101EF00001D019E0C6B1E08F0028A9D1B4F846009E
:101F00000028A5D14A463146204601F047FC18B1C9
:101F100020204FF001082066012084F85D00002099
:101F200084F85C004046F3E603208046F4E730BCCA
:101F3000BDE8C09F4FF0E0210428086903D020F0DD
:101F400004000861704740F00400FAE710B5401E35
:101F5000B0F1807F01D3012010BD4FF0E02460611B
:101F60000F21601700F0FAFD0020A061072020611A
:101F7000002010BD10B5040003D094F83D0010B14E
:101F800007E0012010BD002084F83C00204600F04E
:101F90000CF8022084F83D00211D206801F00AFEA3
:101FA000012084F83D00002010BD70470168CA6818
:101FB00042F00102CA600068826807490A40062AA6
:101FC00008D082680A40B2F5803F03D0016841F032
:101FD0000101016000207047070001007047704751
:101FE0002DE9F04102680446D0691168936810F049
:101FF0000F0F4FF000055BD003F0010601F490775E
:10200000374369D0C70707D0CF0505D50127176229
:10201000626F42F001026267820708D5DA0706D0D4
:10202000276802223A62626F42F004026267420746
:1020300008D5DA0706D0236804221A62626F42F0DC
:102040000202626702070AD501F02002324306D07D
:10205000236808221A62626F42F008026267626FA8
:10206000002A32D0800605D5880603D5216E09B135
:1020700020468847606F000703D4206880684006C8
:1020800025D5204601F0B4FF20688168490619D59E
:10209000816821F040018160E06E98B12049816340
:1020A000E06EFEF7B6F900280FD0E06E816B06E017
:1020B000860611D58E060FD5216E1EE02046BDE89E
:1020C000F04108472046FFF78AFFBDE8F08120462F
:1020D000FFF785FF6567F8E7C60209D55B0207D5FC
:1020E0004FF4801010622046BDE8F041FFF776BF44
:1020F000030605D50B0603D5616E0029DED1E4E7A2
:102100004006E2D54806E0D51168204621F040019E
:102110001160202184F87110656600F0E4F8D4E7BE
:10212000DD3F000810B5040003D094F8710010B131
:1021300007E0012010BD002084F87000204600F068
:1021400027F8242084F871002068016821F001013B
:102150000160204601F05CFF0128EBD0606A10B1FD
:10216000204601F0A9FE2068416821F490414160B9
:102170002068816821F02A0181602068016841F0AF
:10218000010101602046BDE8104001F0F9BE0000E9
:1021900010B50068164986B0884227D11548C16C31
:1021A00041F00101C164C16C01F001010591016EB2
:1021B00041F480410166006E012100F480400590E9
:1021C0004FF4007000900220CDE901010390072038
:1021D0004FF09044049069462046FEF741F94FF4D1
:1021E0008061009169462046FEF73AF906B010BDBD
:1021F00000380140001002402DE9F84F044690F8E5
:102200007200984616460D46202867D1FDB1F6B1FA
:1022100094F87000012861D0012084F870004FF01C
:102220000009C4F87490222084F872005434FEF738
:102230000FFAA6808246E68054F84C0C4FF4805783
:10224000FF21543CB84208D1206918B10DE00120AB
:1022500000F046B840F2FF100DE07F2218B1B0F157
:10226000805F05D009E0206950B9A4F85C1004E053
:10227000206928B13F20A4F85C00B4F85C601CE041
:10228000A4F85C20F9E75346002220212046CDF82F
:10229000008002F01BF808B10320D9E7A068B8421B
:1022A00001D12069A0B12068808C304005F8010B75
:1022B000B4F85A00401EA4F85A00B4F85A00002896
:1022C000E1D1202084F8720084F870900020BFE7EC
:1022D0002068808C304025F8020BE9E70220B7E740
:1022E00018BCBDE8E08F7047FEE7000030B5164827
:1022F00087B0C16C41F00401C164C16C01F00401FC
:102300000591C16C41F00801C164C06C002500F06A
:10231000080005904FF4E060CDE900050220032499
:10232000CDE9020469460948FEF79AF84FF40050D7
:10233000CDE900050120CDE9020469460448FEF715
:102340008FF807B030BD000000100240000C0048BC
:10235000000800482DE9F05F0126324CB702DFF893
:10236000C8B0324D4FF400784FF480794FF4005AE2
:1023700001281DD02078A0B139462846FEF759F92A
:10238000C0B141462846FEF754F998B1494628465F
:10239000FEF74FF970B151465846FEF74AF9012849
:1023A00008D039462846FEF744F9012826D037E000
:1023B0002670E1E70A2003F079F800202070394602
:1023C0002846FEF736F980B141462846FEF731F936
:1023D00070B149462846FEF72CF958B15146584687
:1023E000FEF727F9012807D01AE0012000F020B8F5
:1023F0000220FBE70320F9E70420F7E741462846DF
:10240000FEF717F901280BD149462846FEF711F9C6
:10241000012805D151465846FEF70BF900B9267040
:102420000020E3E71400002000080048000C0048EA
:1024300030BCBDE8C09F2DE9F04107461C4615465B
:102440000E462A2000F034FB380A00F03FFBF8B2B9
:1024500000F03CFB280A00F039FBE8B200F036FB44
:102460002B2000F025FB300A00F030FBF0B200F02A
:102470002DFB200A00F02AFBE0B200F027FBBDE8AC
:10248000F0412C2000F014BB70B5050AC4B2EF2354
:1024900000211A460846FFF7CEFF0F4900204FF4EF
:1024A000107201F8105001EB4003401C80B25C70C8
:1024B0009042F6D3012210210848FEF7C3F8002409
:1024C0004FF490652946044800F0C2F9641CA4B298
:1024D000642CF7D370BD0000D8030020000400482E
:1024E00010B514460B460246FFF7A5FF2046BDE88F
:1024F000104000F0F9BA00002DE9F047151A5F1AF4
:102500006D1C7F1C7D4300246D004FF49068089E75
:10251000454502D9A5F590644546FFF78CFF370A7B
:10252000DFF84C90DFF84CA0F6B20020494606E0F8
:1025300001F8107001EB4002401C567080B2B0EB05
:10254000550FF5D3012210215046FEF77BF8A9B2B2
:10255000074800F07DF9002C07D0444502D9A4F5C6
:102560009064E2E725460024DFE7BDE8F08700003D
:10257000D8030020000400482DE9F047151A5F1A1F
:102580006D1C7F1C7D4300246D004FF49067089EF6
:10259000BD4202D9A5F590643D46FFF74CFFDFF838
:1025A0005480DFF85490002041460BE036F81020AC
:1025B00001EB4003120A01F8102016F81020401C0D
:1025C0005A7080B2B0EB550FF0D30122102148466B
:1025D000FEF738F8A9B2074800F03AF9002C07D006
:1025E000BC4202D9A4F59064DDE725460024DAE771
:1025F000BDE8F087D80300200004004830B5254826
:1026000087B0C16C41F00201C164C16C01F00201EC
:102610000591C16C41F00801C164C06C1E4C00F012
:1026200008000590D0200090012001900290022027
:10263000039069462046FDF713FF0022D021204673
:10264000FEF700F88021154D009169462846FDF7F8
:1026500007FF002280212846FDF7F4FF0022802199
:102660002846FDF7EFFF002280212046FDF7EAFF14
:10267000002240212046FDF7E5FF782002F016FFFA
:10268000012240212046FDF7DDFF01F057F807B099
:1026900030BD00000010024000040048000C00485B
:1026A00010B5FFF7ABFF782002F000FF112000F01B
:1026B000FFF9782002F0FAFE362000F0F9F9002048
:1026C00000F004FA3A2000F0F3F9652000F0FEF97A
:1026D000B22000F0EDF90C2000F0F8F90C2000F029
:1026E000F5F9002000F0F2F9332000F0EFF9332083
:1026F00000F0ECF9B72000F0DBF9722000F0E6F909
:10270000BB2000F0D5F93D2000F0E0F9C02000F03A
:10271000CFF92C2000F0DAF9C22000F0C9F901202D
:1027200000F0D4F9C32000F0C3F9192000F0CEF96D
:10273000C42000F0BDF9202000F0C8F9C62000F048
:10274000B7F90F2000F0C2F9D02000F0B1F9A420B1
:1027500000F0BCF9A12000F0B9F9E02000F0A8F9E0
:10276000D02000F0B3F9042000F0B0F90D2000F003
:10277000ADF9112000F0AAF9132000F0A7F92B20E1
:1027800000F0A4F93F2000F0A1F9542000F09EF9D8
:102790004C2000F09BF9182000F098F90D2000F073
:1027A00095F90B2000F092F91F2000F08FF92320FB
:1027B00000F08CF9E12000F07BF9D02000F086F9E0
:1027C000042000F083F90C2000F080F9112000F0C3
:1027D0007DF9132000F07AF92C2000F077F93F20E2
:1027E00000F074F9442000F071F9512000F06EF906
:1027F0002F2000F06BF91F2000F068F91F2000F077
:1028000065F9202000F062F9232000F05FF9212013
:1028100000F04EF9292000F04BF9EF2300211A4671
:102820000846FFF708FE4FF6FF70FFF72DFE012266
:10283000BDE8104080210148FDF704BF00040048B6
:102840000346012000E05843491EC9B2FBD270473D
:1028500000F09ABF2DE9F05F203AD5B21C46F02275
:10286000A2EB5402824256D3C4F1F0028A4252DBF8
:102870000A19521E93B200EB5402521E92B2FFF795
:10288000DAFD3F4F102C15D0202C13D00C2C44D047
:10289000182C40D13B4905EB45004FF0300A00248D
:1028A00001EB0019B84619F80460E00752D004277C
:1028B00000255EE0600700D0012000EBD400610835
:1028C00010FB01F000F0FF0B2F48002600EB051A6B
:1028D00000F5BE5000EBC519B8461AE0102C09D01F
:1028E000202C18D119F806500027280605D5B8F86D
:1028F000000004E01AF80650F6E7B8F8020000F00D
:10290000F3F868067F1C050EFFB2082FEDD3761C86
:10291000F6B25E45E2D300F03BB81C4805EB45013A
:102920004FF00C09002600EB8108002418F806502F
:10293000280601D5388800E0788800F0D5F86806C8
:10294000641C050EE4B2062CF2D3761CF6B24E459A
:10295000EBD3E0E70827ABE7300602D5B8F8000074
:1029600001E0B8F8020000F0BFF87006060E6D1C1A
:10297000EDB2BD42F0D3641CE4B2544593D3CAE730
:102980001600002080C7000890C100081CBD000888
:1029900030BCBDE8C09F2DE9F047044600F0FF08B9
:1029A00010190D46DDE908761FFA80FA58191FFA4A
:1029B00080F90FE0544502D3E819444685B24D45ED
:1029C0000DD23B4629462046FFF744FF04EB570053
:1029D00084B2761C3278A2F120005E28EAD9BDE8E4
:1029E000F08700002DE9F04115464419069F1E4668
:1029F0008446F02C18D88819F02815D8401E83B2C8
:102A0000641EA2B26046FFF716FD0122102107489E
:102A1000FDF718FE75434FF6FF7000EA4501384692
:102A2000BDE8F041FFF714BFBDE8F08100040048A5
:102A30002DE9FF5F4FF00008DDE90EBA1E46914612
:102A4000074644464FEA5B0529E0301B401EC1B2F1
:102A50000A20FFF7F5FEB9FBF0F00A21B0FBF1F216
:102A600001FB1200B8F1000F05D1711E8C4202DA91
:102A700040B14FF001083030C2B205FB047080B2A3
:102A80005B4607E005FB0470BAF1000F80B25B46BD
:102A900009D030220199FFF7DDFE641CE4B2B44294
:102AA000D3D300F002B82022F4E73FBCBDE8C09FBA
:102AB00001B5002210210448FDF7C4FD012168463C
:102AC000FFF7C6FE08BD00000004004801B5012262
:102AD00010210448FDF7B6FD01216846FFF7B8FE56
:102AE00008BD00000004004808B500210091010A5B
:102AF0008DF800108DF80100012210210348FDF728
:102B0000A1FD02216846FFF7A3FE08BD00040048AE
:102B100030B50F4887B0C16C41F01001C164C06C82
:102B20004FF4607400F0100005900120CDE90040E2
:102B300002900220074D039069462846FDF790FC5D
:102B4000012221462846FDF77DFD07B030BD00007B
:102B50000010024000100048FEE770470907090E08
:102B6000002806DA00F00F0000F1E02080F8141DC4
:102B7000704700F1E02080F8001470477047F0B50E
:102B80004B6A4FF040652BB1AA4203D08B6A0468B0
:102B90005B1E23618B69002B5DD00C6A7CB30468DB
:102BA0008B68E361CB69C3B1D1E90B4634434F6A0B
:102BB0004E6B3E4334438E8A44EA86440E69344366
:102BC0000E6A3443CE6834431C438B691C430B6844
:102BD0007DE0006849688161F0BDD1E90B34234391
:102BE0004D6A4C6B2C4323438C8A43EA84430C6923
:102BF00023430C6A23438C690968234354E0FFE7AD
:102C0000CC69BCB1D1E90B673E43D1F824C04F6B0E
:102C100047EA0C073E438F8A46EA8746CF683E4321
:102C200026431E430B681E43036816435E61AA4297
:102C3000CFD1F0BDD1E90B452C434E6A4D6B0068F6
:102C400035432C438D8A096844EA85441C430C4370
:102C500014434461F0BD0B6A5BB304688B68E361A5
:102C6000CB6993B1D1E90B4634434F6A4E6B3E4377
:102C700034438E8A44EA86440E6934430E6A3443F0
:102C8000CE6834431C438B6921E0D1E90B342343E4
:102C90004D6A4C6B2C4323438C8A43EA84430C6972
:102CA00023430C6A8969234300680B431343436140
:102CB000F0BDCB6983B1D1E90B4634434F6A4E6B0B
:102CC0003E4334438E8A44EA8644CE6834431C43F0
:102CD000036814435C61AAE74B6A002BE8D0D1E992
:102CE0000B452C434D6B898A1D432C43006844EAF5
:102CF000814111434161F0BD0E4810B50C4901609E
:102D000000210422C0E901121022C260120592FAC9
:102D1000A2F2B2FA82F2521E02614FF44072C0E98E
:102D20000521FDF7D7FD002800D0012010BD0000CF
:102D3000001000A0BC080020074A10B51268491E08
:102D40001161014641F288320348FDF743FE002835
:102D500000D0012010BD0000BC08002070B58EB06E
:102D60000DF1480C9CE87000CDE9000103950020AE
:102D700009960D90CDE907400B900C90CDE9052305
:102D800041F2883269460248FDF75DFD0EB070BD24
:102D9000BC080020074A10B51268491E116101469F
:102DA00041F288320348FDF77AFE002800D0012066
:102DB00010BD0000BC0800202DE9F0411E4617465A
:102DC00088460546069C07E0601C05D0FDF740FCE0
:102DD000801BA0420BD854B12868806810EA080014
:102DE00000D00120B842EFD10020BDE8F0810420DE
:102DF00085F83900E86B40F00100E8630120F4E752
:102E00002DE9F041444E05468846F06800248107CC
:102E100028680ED0F16801F00301814207D130B17A
:102E2000F0686968C0F30210401C88421FD001247A
:102E30006EE0012809D002280AD00328F7D13168B2
:102E4000890309D43168490304E03168890701E046
:102E5000316849050029EADAF1686A686FF00F0302
:102E600021F0730103EB021211430143F16030685A
:102E700020F080603060FDF7EBFB074604E0FDF7D3
:102E8000E7FBC01B022839D830680001F7D47CBBAF
:102E9000B8F1000F18D0B8F1010F1ED0287D4FF007
:102EA0007E41400801EB4060A96840EA0120316999
:102EB0001A4A114008433061306840F08060306049
:102EC000FDF7C6FB07461BE0A868E9680002090990
:102ED00040EA41403169124AEBE7288A114940082B
:102EE00001EB4050A96840EA012031690E4AE0E751
:102EF0000EE0FDF7ADFBC01B022801D9032407E05B
:102F000030680001F5D51CB93069A9690843306102
:102F10002046BDE8F081000000100240FF80FFF96C
:102F2000FF80FDFF0000E0FFFF809FFF2DE9F041E3
:102F30003E4E05468846F0680024810728680ED07A
:102F4000F16801F00301814207D130B1F06869688E
:102F5000C0F30210401C88421FD0012462E0012807
:102F600009D002280AD00328F7D13168890309D48F
:102F70003168490304E03168890701E03168490597
:102F80000029EADAF1686A686FF00F0321F0730133
:102F900003EB021211430143F160306820F08050CE
:102FA0003060FDF755FB074604E0FDF751FBC01B01
:102FB00002282DD830688000F7D454BBB8F1000F38
:102FC00015D0287C4FF07E41400801EB4060A96895
:102FD00040EA01217069164A10400143716130686E
:102FE00040F080503060FDF733FB074612E0A868E0
:102FF000E9680002090940EA414071690D4A11403F
:1030000008437061EBE7FDF723FBC01B022801D9E1
:10301000032407E030688000F5D51CB97069696940
:10302000084370612046BDE8F081000000100240B6
:10303000FF80FFF9FF80FDFFF8B51C4E0546002418
:10304000B06DC00002D5FDF7ABFB0DE0B06D40F0F8
:103050008050B065B06D00F080500090FDF7A0FB8F
:10306000B16D21F08051B165B0F5007F04D0802DA5
:1030700007D94FF003040AE0802D08D9A02D01D80C
:1030800004E001D1022402E0702D00D1012408489F
:10309000016821F0070121430160006800F007008A
:1030A000A04201D00120F8BD0020F8BD0010024070
:1030B000002002400148FEF7A1BA00006429012067
:1030C000010901EB810100F00F0000EB4100C0B2EB
:1030D0007047002102E00A38C0B2491C0A28FAD21F
:1030E000090740EA1160704770B505460068C1687D
:1030F000490613D44FF0FF31C160FDF7A9FA044629
:103100004FF47A7606E0FDF7A3FA001BB04201D92E
:10311000032070BD2868C0684006F4D5002070BD4B
:10312000174810B51549016000217F22C0E901123E
:10313000FF22C0E903218161C161FEF7D7FA08B11E
:10314000022010BD00210E48FEF715FA43F2F124CB
:10315000A04210D0012300221521102000F024F8F5
:10316000032319220921132000F00CF82246002124
:103170000348FEF705FA002010BD000000280040BB
:103180006429012008B58DF802208DF801108DF812
:1031900000308DF80300002269460248FEF72EFB3E
:1031A00008BD00006429012000B585B08DF800003D
:1031B0008DF8011000208DF8022003900246049043
:1031C0008DF8033069460248FEF780FB05B000BD6C
:1031D000642901200148FEF7E3B9000064290120B9
:1031E00010B5012208210448FDF72CFABDE8104073
:1031F000FF2000F06DBA00000008004870B50546D9
:1032000001220021092000F0B9F9040004D11021A5
:10321000284600F035F90446FFF7E2FF0CB1012023
:1032200070BD002070BD70B505464FF6FF7401E01B
:10323000641EA4B2FF2000F067F9A84202D0002C5F
:10324000F6D102E00CB1002070BDFF2070BD1FB5AB
:103250006846FFF7D3FF10B1002004B010BD9DF801
:1032600000100120B0EB911F09D19DF808209DF8B6
:10327000091000EB0220084400048009EDE79DF8E6
:1032800005009DF80A1000F00F0000EBD1109DF82A
:1032900009109DF8072001F0030100EB41019DF8A2
:1032A0000800800900EB82009DF8062002F003026E
:1032B00000EB8220401CC91F8840CEE72DE9F8436F
:1032C00000F0F8F8382000F013FA0024FF2000F096
:1032D000FFF9641CA4B20A2CF8D31424002195220F
:1032E000084600F04BF90546012802D0641EA4B23E
:1032F000F4D2474E0027012D37707AD187224FF440
:10330000D571082000F03AF94FF6FE7801281ED05A
:1033100001220021372000F031F90122002129206B
:1033200000F02CF901284FD80220307044460122C9
:103330000021372000F022F901220021292000F08D
:103340001DF905004DD0641EA4B2F0D249E000245E
:103350006F46FF2000F0D8F83855641CA4B2042C46
:10336000F7D39DF80200012843D19DF80300AA2855
:103370003FD144464FF0804801220021372000F021
:10338000FDF801224146292000F0F8F8050002D09E
:10339000641EA4B2F0D2B4B1012200213A2000F0A0
:1033A000EDF880B90024FF2000F0AEF83855641C19
:1033B000A4B2042CF7D39DF80000400601D50620E6
:1033C00000E00420307014E00120307044460122F7
:1033D0000021104600F0D2F8050002D0641EA4B20D
:1033E000F5D22CB101225102102000F0C7F800B133
:1033F0003770FFF7F5FE002000F07AF9307810B151
:103400000020BDE8F8830DB12846FAE7AA20F8E7C6
:10341000380000202DE9F04106461848154600788E
:10342000062800D049024FF40077012D4FF0010229
:1034300019D0122000F0A2F83946304600F020F8EA
:103440006D1E044606F5007615F0FF0501D0002C30
:10345000F2D0012200210C2000F090F8FFF7C0FE0E
:103460002046BDE8F081112000F088F80400F5D175
:103470003946304600F004F80446EFE738000020F3
:1034800070B504460D46FE20FFF7CDFE28B10120A1
:1034900070BD00F01DF904F8010B6D1EADB24FF0C8
:1034A000FF00F6D200F014F9FF2000F011F900201F
:1034B00070BD0000124810B5C16C86B041F0040127
:1034C000C164C06C0F4C00F004000590082000900F
:1034D0000120019002900220039069462046FCF7EB
:1034E000BFFF012208212046FDF7ACF800F0C6F826
:1034F000012208212046FDF7A5F806B010BD000006
:10350000001002400008004800F0E2B810B50022A8
:1035100008210548FDF796F800F05FF8002802D072
:10352000FFF75EFE012010BD0008004870B50C4694
:10353000054600F052F808B1012070BD204600F0A9
:10354000C7F8FD2C18D000244FF40076285D00F059
:10355000BFF8641CA4B2B442F8D3FF2000F0B8F85E
:10356000FF2000F0B5F8FF20FFF7CEFF00F01F00AE
:10357000052801D0022070BD002070BD70B5164630
:103580000C460546FFF72CFEFFF7C0FF08B1FF20F1
:1035900070BD45F0400000F09BF8200E00F098F858
:1035A000C4F3074000F094F8C4F3072000F090F84B
:1035B000E0B200F08DF8304600F08AF80C2D02D110
:1035C000FF2000F085F81F24FF20FFF79DFF010674
:1035D000DED5641EE4B2F7D270BD70B500246FF082
:1035E0007F45FF20FFF790FFFF2804D0641CAC420A
:1035F000F7D3012070BD002070BD000070B50646F5
:103600001D4815460C460078062800D04C02012DB6
:1036100013D0012809D0012200213720FFF7AEFF87
:10362000012229461720FFF7A9FF01222146192070
:10363000FFF7A4FF04000AD01AE001222146182057
:10364000FFF79CFF040013D1FE2130460DE0FC2162
:103650003046FFF76BFF6D1E06F5007615F0FF058F
:1036600001D00028F3D0FD210020FFF75FFF0446C2
:10367000FFF7B6FD204670BD3800002010B5134C92
:1036800011484FF4E06120604FF4827060600020C8
:10369000C4E9020102212161012161614902A161A4
:1036A0003821C4E907106062A0620720E06220466A
:1036B000FEF7A6F92068016841F040010160BDE80D
:1036C0001040FF2000F02EB80030014000290120FA
:1036D00001B582B04FF47A700090012301AA02A9CB
:1036E0000248FEF7F7FA9DF804000EBD00290120FC
:1036F0000B4A10B511680B6823F040030B6011688A
:103700000B684FF6C77423400B6011680B680343C6
:103710000B601068016841F04001016010BD0000BD
:103720000029012001B54FF47A730122694602484D
:10373000FEF70CFA08BD00000029012010B5114C5D
:103740000F484FF4E06120604FF482706060002009
:10375000C4E9020102212161012161614902C4E938
:10376000061020626062A0620720E0622046FEF739
:1037700047F92068016841F04001016010BD000078
:10378000003C0040580800200A4601464FF47A7376
:103790000148FEF7DBB9000058080020F8B51546CF
:1037A0000E460B460092044600224FF4C05100F032
:1037B00019F888B93346002280212046009500F090
:1037C0005CF848B9334600224FF4C06120460095AA
:1037D00000F008F8002804D0206E40F02000206699
:1037E0000320F8BD2DE9F0471D4616460F46044656
:1037F0004FF4C069DDF820800CE04F4501D106B9D7
:10380000007B681C06D0FCF723FFA0EB0800A84251
:1038100008D23DB1206881683940B142EDD1002025
:10382000BDE8F0872068416821F0E00141606068F0
:10383000B0F5827F0BD1A068B0F5004F02D0B0F593
:10384000806F04D12068016821F040010160A06A06
:10385000B0F5005F09D12068016821F400510160D2
:103860002068016841F400510160012084F85D0086
:10387000002084F85C000320D2E72DE9F0411D46CA
:1038800017460E460446DDF8188008E0681C06D08E
:10389000FCF7DEFEA0EB0800A8420BD255B1206871
:1038A000806836EA000030D00020B842EED1002017
:1038B000BDE8F0812068416821F0E0014160606866
:1038C000B0F5827F0BD1A068B0F5004F02D0B0F503
:1038D000806F04D12068016821F040010160A06A76
:1038E000B0F5005F09D12068016821F40051016042
:1038F0002068016841F400510160012084F85D00F6
:10390000002084F85C000320D2E70120CDE7704757
:103910002DE9F04F1C460746A1B013460D4660073F
:1039200000D0012000EBD40010FB04F000F0FF08F1
:103930000C2C05D0102C03D0182C01D0202C46D1F3
:10394000224669461846FCF7FBFCDFF8C4A0E946AE
:10395000102C14D0182C12D0202C10D00C2C36D1B6
:1039600005F10B0083B207F10B0082B229463846FD
:10397000FEF761FDCB460024DFF8989044E028195B
:10398000401E83B23819401E82B2082629463846A6
:10399000FEF751FDCB46D1460027DFF878A014E0B2
:1039A0001BF8075000240CE0280602D5B9F80000E7
:1039B00001E0BAF80000FFF797F86806050E641CEE
:1039C000E4B2B442F0D37F1CFFB24745E8D321B044
:1039D00000F022B81BF80460E00702D0042700259D
:1039E0000EE00827FBE7300602D5BAF8000001E038
:1039F000B9F80000FFF778F87006060E6D1CEDB2FE
:103A0000BD42F0D3641CE4B24445E3D3DFE70000D9
:103A1000160000201800002030BCBDE8C08F2DE942
:103A2000FF5F0446DDE90E7580469B460E468A46DA
:103A3000002081461BE0B9F1000F1DD002994FF024
:103A4000000908EB0100401BA04202DA701986B29F
:103A500044460AEB0B00401BB0420BDB2B463A46B8
:103A600031462046FFF754FF601984B2BF1C3A78F4
:103A7000002AE0D100F024B8802A01D90120D8E73B
:103A8000029908EB0100A0EB5500A04202DA701980
:103A900086B244460AEB0B00401BB042EADB0D2A1B
:103AA00009D02B4631462046FEF7D4FE04EB5500E4
:103AB00084B27F1CDBE7701986B244467F1CF5E7B1
:103AC0003FBCBDE8C09FFCF7C9BD00001A4810B557
:103AD000816D98B041F080518165806D012100F0C9
:103AE000805016900804CDE90010022003240A90AB
:103AF000CDE90B4114210D910721CDE90E10109055
:103B00006846FDF70DFB00B1FEE70F20CDE911047B
:103B10000020139014901590042111A8FDF7F6F9D8
:103B200000B1FEE74FF40070FCF706FE002800D05D
:103B3000FEE718B010BD0000001002400D480168FB
:103B400041F4700101600C48016841F0010101601D
:103B5000002181600268094B1A4002608214C26031
:103B6000026822F48022026081610249C003803928
:103B70000860704788ED00E000100240FFFFF6EAA1
:103B800010B50A4C2068C068C043C00709D1084876
:103B90000069804721680020486221686420C8626B
:103BA000E06021686FF00100086110BD88290120E4
:103BB000200100202DE9F0470268264C264D274EB3
:103BC000274F284B4FF0804AA04209D0504507D0DC
:103BD000A84205D0B04203D0B84201D0984204D1E7
:103BE00022F0700C4A6842EA0C02DFF87CC0DFF871
:103BF0007C80DFF87C90A0420FD050450DD0A842C9
:103C00000BD0B04209D0B84207D0984205D06045E9
:103C100003D0404501D0484503D122F44075CA681D
:103C20002A434D6922F080022A4302608A68C262F8
:103C30000A688262A04207D0984205D0604503D04E
:103C4000404501D0484501D1096901630121416125
:103C5000BDE8F087002C014000040040000800404F
:103C6000000C00400034014000400140004401408D
:103C7000004801402DE9FC5F05460E460027B84686
:103C8000B9466B48077890F8018090F8029069482F
:103C900000886949096808800024C4E00F2094FB6B
:103CA000F0F0D8B90A2097FBF0F0644931F8100021
:103CB0000F2194FBF1F201FB1241C1F10F0201212E
:103CC0009140084028B15E4800885E490968088034
:103CD00004E05D4800885B49096808800F2094FB78
:103CE000F0F001281DD10A2097FBF0F100FB1170C4
:103CF000524931F810000F2194FBF1F201FB1241FF
:103D0000C1F10F0201219140084028B14C480088C0
:103D10004C490968088004E04B4800884949096813
:103D200008800F2094FBF0F002281BD10A2098FB9A
:103D3000F0F0424931F810000F2194FBF1F201FB41
:103D40001241C1F10F0201219140084028B13C48C5
:103D500000883C490968088004E03B4800883949EC
:103D6000096808800F2094FBF0F003281DD10A2079
:103D700098FBF0F100FB1180304931F810000F2161
:103D800094FBF1F201FB1241C1F10F0201219140BC
:103D9000084028B12A4800882A490968088004E0B8
:103DA000294800882749096808804C4504D12748DC
:103DB00000882449096808800F2094FBF0F100FB7B
:103DC0001140032190FBF1F021498978204A1279B2
:103DD000114400FB01601FFA80FA0F2094FBF0F001
:103DE0001B4909884843032194FBF1F201FB12416E
:103DF000174A9278164BDB781A4401FB02002844DC
:103E00001FFA80FB1348017811488078022322466C
:103E1000CDE9000151465846DFF83CC0DCF800C04F
:103E2000E047601CC4B23C2CFFF638AF00F016B877
:103E30004C0200205C020020640200206802002086
:103E400058020020600200205A0200205E0200207A
:103E500050020020560200207C0200203CBCBDE83D
:103E6000C09F000038B5114A04460D46906D40F0E1
:103E700004009065906D032200F00400009011464C
:103E80001E20FCF727FC1E20FCF719FC094A002124
:103E90000748C2E902141161C2E900051046FEF7A5
:103EA00069F8BDE838400348FEF780B800100240CA
:103EB000000800408829012090F82410C90706D086
:103EC00001684A68836A22F400321A434A6090F813
:103ED0002410890706D501684A68C36A22F4803233
:103EE0001A434A6090F82410490706D501684A68C9
:103EF000036B22F480221A434A6090F824100907C9
:103F000006D501684A68436B22F400421A434A60AE
:103F100090F82410C90606D501688A68836B22F4DC
:103F200080521A438A6090F82410890606D50168E9
:103F30008A68C36B22F400521A438A6090F82410F6
:103F4000490611D501684A68036C22F480121A43AD
:103F50004A60016CB1F5801F06D101684A68436C64
:103F600022F4C0021A434A6090F82410090606D5CC
:103F700001684A68806C22F4002202434A6070475C
:103F8000F8B5002504464567FCF762FB0746206844
:103F900000686FF07E46000708D53B4600224FF4CC
:103FA00000112046009600F091F960B92068006881
:103FB00040070AD53B4600224FF480012046009678
:103FC00000F084F908B10320F8BD202084F87100C6
:103FD00084F8720084F870500020F8BD10B5806A33
:103FE0000021A0F85A10A0F85210FDF7F8FF10BDFC
:103FF00001680A6822F490720A6001688A6822F0F7
:1040000001028A60202180F8721000210166704749
:104010002DE9F047044600682369A168D4F81CC064
:10402000194363691025002643EA0C0319439B4A90
:1040300003683746DFF868C203EA0C030B430360EA
:1040400020684168E36821F44051194341602168C8
:10405000A069914201D0236A18438B6823F430632E
:1040600003438B608F4B21688F4899420DD1D0F864
:10407000880010F0030006D001285AD0022856D03C
:10408000032859D157E0012556E0884B99420BD1BE
:10409000D0F8880010F00C0047D0042849D0082838
:1040A00045D00C2848D146E0814B99420BD1D0F83D
:1040B000880010F0300038D010283AD0202836D0B0
:1040C000302839D137E07B4B99420BD1D0F88800AA
:1040D00010F0C00029D040282BD0802827D0C0283D
:1040E0002AD128E0744B99420ED1D0F8880010F400
:1040F00040701AD0B0F5807F1BD0B0F5007F16D08D
:10410000B0F5407F18D116E0914215D1D0F8880063
:1041100010F4406009D0B0F5806F0AD0B0F5006FA0
:1041200005D0B0F5406F07D105E0002504E0022579
:1041300002E0042500E00825604B4FF000084FF432
:104140000040914244D135B1022D07D0042D07D053
:10415000082D10D107E0FCF76BFF03E0184602E0E2
:10416000FCF78AFF98B3626802EB4201814202D8F1
:10417000B0EB023F01D9012789E065B1022D0DD0D6
:10418000042D13D0082D1BD001274D49A6F54070F2
:1041900088427AD9EFE7FCF74BFF09E05008494B1A
:1041A00011E00023FCF70CF80646EEE7FCF764FF8D
:1041B0006268010E05025008281841EB0801F0E77B
:1041C00050084FF40003C01848F10001E9E75EE031
:1041D000E1694FF6EF7981422ED1092D1DD2DFE83A
:1041E00005F00508121C151C1C1C1800FCF720FF0C
:1041F00001E0FCF72FFF4100606801EB5001B1FBCB
:10420000F0F086B20AE030496068F6E7FCF734FF68
:10421000F1E74FF480316068EFE70127A6F1100065
:104220004845A8D84FF6F07106EA0100C6F34201EE
:1042300008432168C8602AE0092D21D2DFE805F093
:1042400005081220162020201A00FCF7F1FE01E0DC
:10425000FCF700FF0146606801EB5001B1FBF0F094
:1042600086B20EE0606803EB5001F7E7FCF704FF4D
:10427000F0E70AE0616800EB5100B0FBF1F0EFE716
:104280000127A6F11000484584D82068C660C4F80C
:1042900060803846C4F86480BDE8F0870080004044
:1042A000F369FFEF00380140001002400044004075
:1042B00000480040004C0040005000400024F40042
:1042C000FFFC0F00000024F40048E8012DE9F04154
:1042D0001E46174688460446069D1CE0681C1AD0F8
:1042E00025B1FCF7B5F9801BA84214D920680168F4
:1042F00021F4D07101602068816821F001018160A2
:10430000202084F8710084F87200002084F8700086
:104310000320BDE8F0812068C16938EA010004D0BB
:104320000020B842DAD00020F3E70120F9E70000CE
:1043300038B518480068C069C043800622D44FF4DD
:104340007A73012269461348FDF756FF124A108816
:10435000010417D441049DF800104FF0000304D568
:104360000A290ED140F4004012E00D290ED0C0F30E
:104370000D04084D401CC83D80B229551080C72847
:1043800000D913800348FDF72BFE38BD40F4804070
:104390001080F7E7600300200C000020FEE70EB558
:1043A00000F0D5F800F07AF8002000900190024665
:1043B000014602904FF48073C720FEF7CFFCBDE8A2
:1043C0000E4000F06BB83EB5040300F0C0F800F0FA
:1043D00065F84FF40051C81000228DE807008310E3
:1043E00021462020FEF7BAFCBDE83E4000F056B85A
:1043F00010B5FEF781FC00F01AF80149088010BDE5
:104400001A000020FEB54FF080740546E312D81064
:104410008DE819001646831008220B20FEF79EFC3B
:1044200003B031462846BDE8F040FEF785BC1FB515
:104430004FF08072D112C8108DE80700831000225F
:1044400011469020FEF78AFC022103A8FEF774FCB7
:10445000BDF80C0004B040BA10BD1FB500218DF8A6
:104460000C10012803D0022803D0032803D0052014
:1044700002E0352000E015204FF080720091CDE978
:104480000112131400221146FEF768FC012103A853
:10449000FEF752FC9DF80C0004B010BD10B50120D1
:1044A000FFF7DBFFC007FAD110BD00002DE9F05F78
:1044B000C1F30B06DFF88C800F0BC6F580548A46DB
:1044C00081461546A24200D8144639038B464FF464
:1044D00080524046FFF796FF002006E0321818F899
:1044E0000210FF2903D1401C80B2A042F6D3A042A3
:1044F00021D23846FFF767FF002006E019F80020B8
:104500008319401C08F8032080B2A042F6D3594614
:104510004FF48052404600F027F8A5420FD0281BE8
:10452000A144A244002685B24FF480547F1CA542CA
:10453000CBD82C46C9E7224651464846EBE700F067
:1045400003B800000009002030BCBDE8C09F0EB5D4
:104550000020009001900246014602904FF48073C3
:104560000620FEF7FBFB0EBD2DE9F0410746C8B261
:10457000C0F580740E461546A24200D814464FF48A
:10458000807822463146384600F00DF8A54208D022
:10459000281B2744264485B24446A542F1D82C4620
:1045A000EFE7BDE8F081FEB516460C460546FFF77D
:1045B000CEFF4FF08072D112C8108DE80700831033
:1045C000002221460220FEF7C9FB31462846FEF7AD
:1045D000E1FBBDE8FE40FFF761BF00000FB4054BF3
:1045E00010B503A9044A029800F018F810BC5DF851
:1045F00014FB0000097D00081000002002E008C83C
:10460000121F08C1002AFAD170477047002001E04C
:1046100001C1121F002AFBD1704700002DE9FF4F96
:104620008DB00F460546002606E025280BD0DDE9B3
:104630000F1290476D1C761C28780028F5D111B018
:10464000304600F0F3B90024A246A1460122EC490D
:1046500000E0044315F8013F203B02FA03F0084252
:10466000F7D128782A2810D06FF02F022878A0F1EF
:104670003001092914D80AEB8A0102EB410144F008
:10468000020400EB010A6D1CF0E701CF5FEA000AAB
:1046900003D544F40054CAF1000A44F002046D1C2E
:1046A00028782E2817D115F8010F44F004042A2881
:1046B0000ED06FF02F022878A0F1300109290AD816
:1046C00009EB890102EB410100EB01096D1CF2E7E6
:1046D00057F8049B6D1C28786C280FD006DC4C28FA
:1046E00017D068280DD06A2814D104E0742810D09F
:1046F0007A280FD10DE044F400140AE044F4801449
:1047000001E044F440146978814202D104F5801438
:104710006D1C6D1C2A786E2A1FD00CDC632A31D0E8
:1047200004DC002A8BD0582A11D1A3E0642A68D077
:10473000692A0CD165E0732A2ED004DC6F2A73D06D
:10474000702A04D19BE0752A6FD0782A6ED010466B
:10475000DDE90F129047761C50E1C4F302500228A5
:1047600006D0032809D0042801CF09D0066045E10E
:1047700001CFF117C0E9006140E101CF06803DE1C2
:1047800006703BE117F8040B8DF8000000208DF84F
:104790000100EB46012003E057F804BB4FF0FF3067
:1047A00061074FF0000102D40DE008F101018846D5
:1047B00049450FDA8045F8DB1BF808100029F4D1D1
:1047C00008E008F1010188468142FADB1BF8081075
:1047D0000029F6D1DDE90F23AAEB08008146214626
:1047E00000F039F9304400EB080604E0DDE90F126F
:1047F0001BF8010B9047B8F10108F7D22146484653
:10480000F7E00A21C4F302534FF0000B0891022B8A
:1048100004D001CFC117032B09D00AE0FF1D27F0F8
:104820000707F7E8020108E032E01FE020E000B2ED
:10483000C117042B01D140B2C117031E71F100034F
:1048400007DA4FF0000CD0EB0C006CEB01012D23CC
:1048500002E0230504D52B238DF82430012303E047
:10486000E30701D02023F7E7984658E00A2110E03B
:1048700010210EE010204FF0000B08900CE01021EA
:104880004FF0000B44F004044FF00809089103E0D6
:1048900008214FF0000B0891C4F30253022B04D0FF
:1048A00001CF0021032B06D006E0FF1D27F00707EC
:1048B000F7E8020103E080B2042B00D1C0B24FF050
:1048C000000823072BD5702A07D0DDF820C08CF014
:1048D000100C5CEA0B0C05D00EE040238DF8243060
:1048E000012308E050EA010306D030238DF824307C
:1048F0008DF8252002239846DDF820C08CF0080CA6
:104900005CEA0B0C0BD150EA010301D1630706D519
:1049100030238DF824304FF00108A9F10109582AFD
:1049200004D038A20B9208AA0A920BE03AA2F9E747
:104930005B46089AFBF744FC0B9B9B5C0A9A521E51
:104940000A92137050EA0102F2D10A98ADEB00000E
:1049500000F1200B600702D524F4803401E04FF011
:104960000109D94502DDA9EB0B0000E0002000EBB6
:104970000B0141440890AAEB010AE00306D4DDE9EB
:104980000F232146504600F066F806444FF0000918
:1049900008E009A911F80900DDE90F12904709F1B3
:1049A0000109761CC145F4DBE0030CD5DDE90F23DA
:1049B0002146504600F04FF8064404E0DDE90F12AE
:1049C00030209047761C0899481E08900029F5DC95
:1049D00008E00A980A990078491C0A91DDE90F124B
:1049E0009047761CBBF10001ABF1010BF1DC2146D5
:1049F0005046DDE90F2300F01CF806446D1C1BE651
:104A000009280100303132333435363738396162A4
:104A10006364656600000000303132333435363768
:104A200038394142434445460000000030BCBDE8EF
:104A3000C08F2DE9F041044600251E461746880424
:104A400004D405E039462020B0476D1C641EF9D51A
:104A50002846BDE8F0812DE9F041044600251E46B8
:104A60009046C80301D5302700E02027880404D5EC
:104A700005E041463846B0476D1C641EF9D528460E
:104A8000BDE8F081284890ED052AD0ED012AD0ED4F
:104A9000021AB8EE420AB8EE621AF8EE613AC0EEB7
:104AA000010A90ED041AB8EE413A83EE230AF4EEBF
:104AB000C00AF1EE10FA01D2B0EE600A10EE101A40
:104AC000B1F17E5F01DDB7EE000AB8EE422AF8EEE2
:104AD000620AB8EE411AF8EE611A4FF6FF7100EE65
:104AE000602AD0ED060A00EE611AF8EE602AF6EEB2
:104AF000000A42EE202ABCEEE22A80ED062AD0ED22
:104B0000071AF8EE611A41EE201AFCEEE10AC0ED38
:104B1000070ADFED060A20EE200ABCEEC00A80ED8F
:104B2000030A0162416270475C2B012000000046CD
:104B30002DE9F84381461F4816461D460F46DDE91C
:104B400008480288294491420CD842883119914280
:104B500008D83DB134B100F12801C0E90445096924
:104B600019B104E02920BDE8F8834FF00008C0E93E
:104B70000676484602F036FC502807D051280AD065
:104B8000522808D053280CD02720ECE74846BDE82F
:104B9000F84305F0EBBE41464846BDE8F84304F053
:104BA000DFBA2B46324639464846009403F04AFBAA
:104BB000D9E700005C2B0120C91C036F002221F003
:104BC00003018B4204D35A1A0267C26E1144C166B4
:104BD000104670472DE9F0470646057BD6E90004EC
:104BE000894621780027B846FDB960B1641C401E93
:104BF000B8F1000F15D021784FF0000871B16FF0B7
:104C00000500BDE8F087B468736F4FF480622146F9
:104C1000304698470028EAD1801EF2E7FF21217034
:104C200002E02178FF290FD080257F00294200D0A3
:104C30007F1C6D08A9F10109B9F1000FD4D13573BA
:104C4000C6E900043846DCE74FF00108F4E700004D
:104C50002DE9F04F002350F8406B4FF4B55C50F84D
:104C6000402B4FF4B5580768056CF419F71B561B19
:104C700006FB0CF62A44C2EB263505EB0709A7EB29
:104C8000050BA618A4EB020A50F860CC056E50F88C
:104C9000207CACEB0504026AAC44D51B3A44ACEB77
:104CA000020707FB08F7624404EB050C41F6905835
:104CB0000CFB08FC41F2511804FB08F44FEA2C3CB1
:104CC00042F6CF1805FB08F5ACEB2535ACEB2434E8
:104CD000AD1A06EB020CB21A40F880CC026609EB62
:104CE0000502C5EB273740F8602CA9EB05020264EA
:104CF0000BEB070240F8402CE41BABEB070202620F
:104D00000AEB040240F8202CAAEB04025B1C40F8DA
:104D10007C29082B9FD30026DFF814E120384FF4BC
:104D2000B55850F8082B50F8084B02F5004250F8DF
:104D3000107B50F8085CD319A2EB070C621B4FF4F0
:104D4000B5577A4317132A19BC1A04EB0C09ACEBBC
:104D5000040A9F18A3EB020B50F8044C50F81C5C9B
:104D600050F80C3C50F814CC2A1B2544A3EB0C043F
:104D70009C44A5EB0C0303FB08F3654402EB040C15
:104D800041F690580CFB08FC41F2511802FB08F266
:104D90004FEA2C3C42F6CF1804FB08F4ACEB243469
:104DA000641BACEB2232C4EB2333A2EB030C7A1965
:104DB000C2F309287D1B1EF80880C5F3092501F8F8
:104DC000078B1EF8055001F8065909EB0405C5F3D9
:104DD0000925A9EB04041EF80550C4F3092401F8C1
:104DE000015B1EF804400C710AEB03047246C4F325
:104DF0000924AAEB0303145DC3F3092301F8024B52
:104E0000D35C4B700BEB0C03C3F30923D35C01F8A9
:104E1000013CABEB0C03C3F309231EF8032001F89C
:104E2000042B761C082EFFF47AAF00F003B80000C4
:104E3000E4A7010830BCBDE8C08F2DE9F047074664
:104E4000C06A891E00EB1136C1F3C80501F00701E5
:104E50004FF0010A0AFA01F098469146C4B2314671
:104E6000761C384605F0A6FA10B10120BDE8F0879F
:104E700052464FF40073791991F8340010EA040C8B
:104E800001D04FF0010CC44501D10220EEE7604093
:104E900081F83400B9F10100FA708146E6D0600073
:104EA00010F0FF04E7D101246D1C9D42E3D3D6E747
:104EB000412803D3612801D32038C0B270470000D5
:104EC00070B504460020E070401E2063204605F0C7
:104ED00071FA08B1042070BD04F2322004F0E7F941
:104EE000A0F52A41553901D0032070BD04F16A00B4
:104EF00004F0A7F90B4DB5EB002F06D004F18600A6
:104F000004F09FF9B5EB002F01D1002070BD0822FD
:104F100005A104F1370004F0FEFE08B1022070BDC7
:104F2000012070BD00464154455846415420202080
:104F30000000000000E0401C02780AB18A42FAD169
:104F4000D0B2704770B515460168846C680A4A890A
:104F500040EAC350590A0023241DFBF731F902CC63
:104F600021B1884204D3401A241DF8E7002070BD07
:104F70002168084470BD8269891E921E8A4201D848
:104F800000207047C26A408901FB00207047000082
:104F90002DE9F05F8146884601F11A0004F087F997
:104FA00088BB98F80000012700F03F00401E00EB8E
:104FB0008001DFF85CA001EBC00400254FF6FF7B09
:104FC0001AF8051001EB080004F071F906466FB1FC
:104FD000FF2C18D202F000FC074639F81400641CBC
:104FE00002F0FAFB87420ED1374601E05E450AD156
:104FF0006D1C0D2DE4D398F80000400606D52FB1A6
:1050000039F8140010B1002000F004B80120FBE7CB
:10501000A8A2010830BCBDE8C09F2DE9F047056893
:105020005FEA0108074626D04146384602F0BEFE38
:10503000022841D3411C1CD0A969814219D8464697
:1050400028784FF0FF3904281CD03446A869641C26
:10505000A04202D80224022E0AD32146384602F08A
:10506000A5FE40B3012804D0411C02D0B442EDD1CA
:105070000020BDE8F0872E6916B1A869B042DFD8DC
:105080000126DDE701223146284602F0CEFB04006E
:1050900039D0601C37D001231A4621462846FFF735
:1050A000CCFE022808D0012808D0B8F1000F07D0A4
:1050B000F879022806D00DE00120DAE74846D8E763
:1050C000022006E0701C844204D0B868301AB8612F
:1050D0000320F8712878042802D1F879022814D026
:1050E0004E464A462146284605F0ECFA40B9B8F14A
:1050F00000000AD001462246284605F0E3FA20B116
:1051000001280FD001242046B3E72C61D5E9050121
:10511000891E884201D2401E6861287940F0010052
:105120002871F0E73446EEE72DE9F74F16460C46B6
:105130005BE0112E52D314F8010BA6F1110A4FEACD
:10514000101900F00F0510F0EE0F47D11021009854
:10515000FFF732FD060037D0009800EBC50101EBE8
:10516000890B00200546CBF8246014F8011B31544C
:10517000401C0D441028F8D369000098FFF71CFD6F
:10518000070021D00021084602464FF6FF7CCBF8ED
:105190003470335C04E027F81210491C89B2521CA9
:1051A0005B1EF8D2401C0CEA41011028F1D3AA453D
:1051B00014D3AAEB050629460098FFF7FDFC18B1A9
:1051C0000021CBF844000EE0032000F012B814F8E0
:1051D000012BB9F1000F03D10B2A01D90620F4E706
:1051E00000F8012B491CA942F1D3002EA1D10020C7
:1051F000EBE71EBCBDE8E08F2DE9F35F0E68009879
:1052000000248846D0F840B02546705D6D1C2028EB
:1052100023D32F2821D05C281FD0FF2C46D2A0F109
:1052200081017D290BD8715D6D1C01EB0020A1F17E
:10523000400280B23F2A02D380397F2936D2012131
:1052400002F086FA070031D0802F12D201466BA0FF
:10525000FFF770FE50BB0CE06D1C715D2F29FBD079
:105260005C29F9D07219C8F80020202805D204253D
:105270000EE02BF81470641CC7E7002508E00BEB68
:10528000440030F8020C202801D02E2802D1641EE0
:10529000002CF4D100212BF814103CB100980B2203
:1052A0002021806B04F04CFD002703E0062000F075
:1052B000AFB87F1C3BF817002028FAD02E28F8D072
:1052C0001FB145F0030500E0641E2CB10BEB440058
:1052D00030F8020C2E28F7D14FF00008C1464FF0ED
:1052E000080A3BF817607F1C06B3202E03D02E2E31
:1052F00004D1A74202D045F00305F2E7D04501D220
:10530000A74219D1BAF10B0F0ED0A74201D045F038
:1053100003050BD84FEA896027464FF008084FF085
:105320000B0A4FEA1069DCE745F003050098806B33
:105330000178E5293DD03EE0802E08D3304602F0CA
:105340004BFA002102F004FA064645F00205FF2E52
:105350000FD9AAF10100804503D345F00305D046DB
:10536000BFE70098310A826B02F8081008F10108C3
:1053700018E026B1314624A0FFF7DCFD18B15F2606
:1053800045F003050EE0A6F14100192802D849F0C6
:10539000020907E0A6F16100192803D8203E49F070
:1053A0000109B6B20098816B01F8086008F10108A4
:1053B00097E705210170BAF1080F03D14FEA896020
:1053C0004FEA1069C9F38100032803D06FEA09018D
:1053D000890701D145F00205A90709D409F00301A5
:1053E000012901D145F01005012801D145F008053A
:1053F0000098806BC572002059E70000222A3A3CD1
:105400003E3F7C7F000000002B2C3B3D5B5D00009D
:105410003CBCBDE8C09F2DE9F05F894606464022AE
:10542000002104F08DFC85203070C02086F820001B
:10543000484606F030FC014606F1240005F091FADA
:10544000402400254FF001084746AA464FF0C10B03
:1054500006F804B0641C06F804A0641C27B139F8EF
:1054600015700FB16D1CEDB23019394605F079FA9F
:10547000A41CE006F2D108F1010000F0FF0839F8A1
:1054800015000028E4D186F8235086F8018000F04A
:1054900000B830BCBDE8C09F10B504460420FCF73E
:1054A00049FD0148046010BD0800002070B50546A4
:1054B00000244FF47A7603E0304600F005F8641CCF
:1054C000AC42F9D370BD000070B54FF0E02500216B
:1054D0006C69094AAB6912685043AA699A42FCD0C8
:1054E00002D2A3EB020302E0A4EB02063344194408
:1054F00013468142F1D370BD080000202DE9F04130
:105500000F4604460021066800F00AFBE8B90025B2
:105510003046216B04F04EFFB8B931780429616B35
:10552000097803D0E52905D021B107E041F3C01186
:10553000491C03D06D1CBD420AD000E000250121AA
:10554000204600F0A8F80028E2D0042800D1072067
:10555000BDE8F0812DE9F05F04460021D0F800900D
:1055600000F0DEFA00284BD199F8000004280CD096
:10557000FF254FF0FF382F46C4F83C804846216B8A
:1055800004F018FF06004CD13CE0206C06F083FBD1
:1055900082462DE0D9F80C00243003F088FE5045F7
:1055A00026D1D9F80C0040254FF0000890F8236070
:1055B00016E0E80600D1AD1CD9F80C00284403F031
:1055C00076FE02F009F9216C074631F8180002F066
:1055D00003F9874207D1761EF6B208F10108AD1C27
:1055E000002EE6D100E01EB9216C31F8180030B170
:1055F0000021204600F0D1F85FEA000BCAD05846DF
:1056000000F046B8616B087850B1CA7AE52802F01C
:105610003F02A27130D0130704D50F2A2CD105E028
:10562000042633E00F2A01D0C5B11CE0226C32B34E
:10563000430605D54F7B20F04000A36A0546E3638F
:10564000A84208D1487BB84205D11046FFF7A0FC1C
:1056500008B16D1E00E0FF25EDB210E0084605F030
:10566000C6FAB84212D0A16BC87AC00704D10B2287
:10567000606B04F050FB48B1FF25C4F83C8000216A
:10568000204600F008F806003FF478AF3046B7E750
:1056900030BCBDE8C09F2DE9F04705460468806A2C
:1056A000894600F12008286B30B12178042906D002
:1056B0004FF40011414505D80420BDE8F0874FF0B4
:1056C0008051F7E75FEAC8515ED1401C2863E96A60
:1056D000002729B16089401E10EA582F05D053E0F9
:1056E0002189B1EB581F21D94EE0284602F05EFB1C
:1056F000064601281ED9701C34D0A069B0423DD89E
:10570000B9F1000F12D02846E96AFFF786FC0600BF
:105710000ED0012E0ED0701C24D0E87940F0040089
:10572000E871204605F0B4FAE0B905E02F63C3E75D
:105730000720C2E70220C0E74FF40072002104F105
:10574000340004F0FDFA002731462046FFF713FC31
:105750004FF0010920630BE084F80390204605F028
:1057600097FA08B10120A8E7206B401C7F1C20633A
:105770006089B842F0D8206BC01B206331462046B8
:10578000EE62FFF7F8FB2863C8F3080020443430CA
:10579000C5F82880686300208FE72DE9F0470426CC
:1057A000FF25894604462F46D0F800805FE040463A
:1057B00004F000FE06005ED1616B0878A0B198F895
:1057C0000020042A12D0CA7AE52802F03F02A27112
:1057D00008D02E2806D022F02003082B1CD000234E
:1057E0004B451BD0FF2532E0042644E0B9F1000F01
:1057F00002D0832841D02AE0852828D1A06AE0631E
:10580000204603F075FD060035D1D8F80C0000796C
:1058100000F03F00A07130E00123E1E70F2A01D042
:105820000DBB1BE0420605D54F7B20F04000A26A6D
:105830000546E263A84208D1487BB84205D1206CF6
:1058400004F0CAFE08B16D1E00E0FF25EDB2002194
:105850002046FFF720FF060009D00CE0084605F0BF
:10586000C6F9B84209D04FF0FF30E06305E0216B84
:1058700000299CD10EB1002020633046BDE8F0879E
:105880002DE9F04F876B0446D0F80090D0F84080A7
:10589000F87A95B010F0A00F03D0062015B000F0F4
:1058A0000DB9002500E06D1C38F815000028FAD16C
:1058B00099F80000042817D00C22394612A804F0E9
:1058C00036FA9DF85300C0076AD00020F87201260E
:1058D00020643346424612A9384602F021FA204697
:1058E000FFF738FEE8BB4FE00F200E35B5FBF0F5B3
:1058F000AD1C29462046FFF701FE0028CED16942A3
:105900002022A06A02EB41110844E063E0794107DC
:1059100033D500F00300E071B9F80A00D4E904318E
:1059200042029A1841F10001C4E90421204601F025
:1059300065FF0028B2D12146684603F0BDFC00286F
:10594000ACD1D4E90423D9F80C00383004F0E4FFDA
:10595000D4E90423D9F80C00283004F0DDFFE07905
:1059600000E014E040F00101D9F80C0080F82110AB
:10597000684605F006F9002890D14146D9F80C0098
:10598000FFF749FD002089E7761C642EA1D3642E21
:1059900010D0042882D19DF85300F872C4F84080DA
:1059A0009DF85300800707D50D200C35B5FBF0F6A8
:1059B000761C02E0072071E7012631462046FFF7FA
:1059C0009DFD050075D1761E5FEA060B58D0A16AD1
:1059D000CBF1000001EB4011204600F0A1F80500DA
:1059E00067D1A06B05F003F901904846216B04F0E4
:1059F000E1FC05005DD1206C0090666B01980BF016
:105A0000FF0A70730F20F07200203073014606F118
:105A10001A0004F0A6FFAAF1010000EB800101EBDF
:105A2000C008002701E0854204D0009830F81850E3
:105A300008F1010820482946C05D304404F091FF78
:105A40000DB94FF6FF757F1C0D2F4FF6FF70EAD38F
:105A5000854203D0009830F8180008B94AF0400A8F
:105A600086F800A0012089F8030000212046FFF7F6
:105A700012FE05001DD1ABF101005FEA000BB4D1AD
:105A80004846216B04F096FC050012D1202200212B
:105A9000606B04F055F9D4E90D010B2204F047F9CD
:105AA000A06B616BC07A00F018000873012089F8C0
:105AB00003002846F2E60000A8A2010830BCBDE8B9
:105AC000C08F2DE9F041C16B0446866A0568481C09
:105AD00002D0204600F024F800281AD1E5274FF024
